:020000040800F2
:100000000000022071350008B7350008B935000836
:10001000BB350008BD350008BF35000800000000F2
:10002000000000000000000000000000C1350008D2
:10003000C335000800000000C5350008C7350008BA
:10004000CB350008CD350008CF350008D135000884
:10005000D3350008D5350008D7350008D935000854
:1000600011350008DD35000839350008E135000894
:10007000E3350008E5350008E7350008E9350008F4
:1000800069490008094A0008EF350008F135000801
:10009000F3350008F5350008F7350008F935000894
:1000A000FB350008FD350008FF3500080136000863
:1000B0000D39000805360008073600080936000823
:1000C0000B3600080D3600080F3600081136000800
:1000D000133600084140000817360008193600089A
:1000E0001B3600081D3600081F36000821360008A0
:1000F0002336000825360008273600082936000870
:100100002B3600082D3600082F360008313600083F
:10011000333600083536000837360008393600080F
:100120003B3600083D3600083F36000841360008DF
:1001300043360008453600084736000849360008AF
:100140004B3600084D3600084F360008513600087F
:10015000533600085536000857360008593600084F
:100160005B3600085D3600085F360008613600081F
:1001700063360008653600086736000869360008EF
:100180006B3600086D36000810B5054C237833B97E
:10019000044B13B10448AFF300800123237010BD5A
:1001A000C401002000000000AC61020808B5064B45
:1001B0001BB106480649AFF300800648036813B137
:1001C000054B03B1984708BD00000000AC61020870
:1001D000C8010020C401002000000000154B002BC6
:1001E00008BF134B9D46A3F5803A00218B460F466E
:1001F0001348144A121A1BF015FF0F4B002B00D0A6
:1002000098470E4B002B00D0984700200021040097
:100210000D000D48002802D00C48AFF300801BF001
:1002200037FD2000290001F04DFF1BF01DF900BF34
:100230000000080000000220000000000000000094
:10024000C4010020A81800200000000000000000E9
:1002500080B485B000AF78600023FB730023BB73CC
:100260000F237B737B68DB78002B37D0254BDB6853
:10027000DB4303F4E0631B0AFB73FB7BC3F1040362
:10028000BB737A7BFB7B42FA03F37B737B685B78FF
:100290001A46BB7B02FA03F3FB737B689A787B7B7D
:1002A0001340DAB2FB7B1343FB73FB7B1B01FB7335
:1002B000154A7B681B781344FA7B83F80023124BA2
:1002C0007A6812785209D2B27968097801F01F0170
:1002D000012000FA01F143F822100EE00A4B7A687F
:1002E00012785209D2B27968097801F01F01012011
:1002F00000FA01F1203243F822101437BD465DF8B0
:10030000047B704700ED00E000E100E080B483B0C2
:1003100000AF78607B681B6823F001027B681A607D
:100320007B6800221A607B6800225A607B6800228A
:100330009A607B680022DA607B6800221A617B6821
:1003400021225A617A68454B9A4203D1444B3D229F
:100350009A607EE07A68434B9A4204D1404B4FF456
:1003600074629A6075E07A683F4B9A4204D13C4BC4
:100370004FF474129A606CE07A683C4B9A4204D154
:10038000374B4FF074629A6063E07A68384B9A4258
:1003900003D1334B374ADA605BE07A68364B9A42D6
:1003A00003D12F4B354ADA6053E07A68344B9A42D6
:1003B00003D12B4B334ADA604BE07A68324B9A42D6
:1003C00004D1274B4FF03D52DA6042E07A682F4B60
:1003D0009A4203D12E4B3D229A603AE07A682D4B27
:1003E0009A4204D12A4B4FF474629A6031E07A68E1
:1003F000294B9A4204D1264B4FF474129A6028E09C
:100400007A68264B9A4204D1214B4FF074629A606D
:100410001FE07A68224B9A4203D11D4B154ADA60DD
:1004200017E07A681F4B9A4203D1194B134ADA60DE
:100430000FE07A681C4B9A4203D1154B114ADA60DF
:1004400007E07A68194B9A4203D1114B4FF03D52A5
:10045000DA600C37BD465DF8047B704710600240DF
:100460000060024028600240406002405860024044
:10047000706002403D00002088600240400F002074
:10048000A060024000003D20B860024010640240BD
:100490000064024028640240406402405864024004
:1004A0007064024088640240A0640240B864024064
:1004B00080B485B000AF786039600023FB607B6852
:1004C0001B68FB60FA68244B1340FB603B681A68AA
:1004D0003B68DB681A433B685B691A433B689B696E
:1004E0001A433B68DB691A433B681B6A1A433B6843
:1004F0005B6A1A433B689B6A1A433B685B6B1A430F
:100500003B689B6B1343FA681343FB607B68FA6894
:100510001A607B685B69FB60FB6823F00703FB6084
:100520003B68DA6A3B681B6B1343FA681343FB6052
:100530007B68FA685A613B681A697B685A603B6855
:100540005A687B689A603B689A687B68DA601437FF
:10055000BD465DF8047B70473F801CF080B483B0DB
:1005600000AF78600B46FB70FB78002B06D07B68F1
:100570001B6843F001027B681A6005E07B681B681A
:1005800023F001027B681A600C37BD465DF8047BDE
:10059000704700BF80B485B000AFF860B960134603
:1005A000FB71BB6803F08003002B0FD0FB79002B9D
:1005B00006D0FB685B6943F08002FB685A6105E086
:1005C000FB685B6923F08002FB685A61BB68802B83
:1005D00014D0FB79002B08D0FB681A68BB6803F0C5
:1005E0001E031A43FB681A6008E0FB681A68BB68C0
:1005F00003F01E03DB431A40FB681A601437BD4644
:100600005DF8047B704700BF80B485B000AF7860B0
:100610000023FB60324BFB607B689B79002B4DD045
:100620002F4B2F4A11687A681268D2430A401A6029
:100630002B4B2B4A51687A681268D2430A405A60A1
:100640007B681B79FA681344FB60FB68FA681168E1
:100650007A6812680A431A60214B214A91687A68C5
:100660001268D2430A409A601D4B1D4AD1687A68CD
:100670001268D2430A40DA607B685B79102B0ED196
:10068000174B174A91687A6812680A439A60144BAC
:10069000134AD1687A6812680A43DA601BE0104B8B
:1006A000FB607B685B79FA681344FB60FB68FA685F
:1006B00011687A6812680A431A600CE07B681B793B
:1006C000FA681344FB60FB68FA6811687A6812687C
:1006D000D2430A401A601437BD465DF8047B704768
:1006E000003C014080B485B000AF78600023FB730C
:1006F0000023BB600C4B1A687B681340BB600A4B3D
:100700005A697B681340002B05D0BB68002B02D0D0
:100710000123FB7301E00023FB73FB7B18461437B6
:10072000BD465DF8047B7047003C014080B483B057
:1007300000AF7860034B7A685A610C37BD465DF8AC
:10074000047B7047003C014080B487B000AF786004
:10075000396000237B6100233B610023FB600023A1
:100760007B6176E07B69012202FA03F33B613B681F
:100770001A683B691340FB60FA683B699A4265D18D
:100780007B681A687B695B00032101FA03F3DB4392
:100790001A407B681A607B681A683B681B791946A7
:1007A0007B695B0001FA03F31A437B681A603B68BC
:1007B0001B79012B03D03B681B79022B2ED17B6860
:1007C0009A687B695B00032101FA03F3DB431A405B
:1007D0007B689A607B689A683B685B7919467B699D
:1007E0005B0001FA03F31A437B689A607B685A68DE
:1007F0007B699BB2012101FA03F3DB431A407B685A
:100800005A607B685A683B689B7919467B699BB242
:1008100001FA03F39BB21A437B685A607B68DA687B
:100820007B699BB25B00032101FA03F3DB431A40AF
:100830007B68DA607B68DA683B68DB7919467B693C
:100840005B0001FA03F31A437B68DA607B690133CA
:100850007B617B690F2B85D91C37BD465DF8047B16
:10086000704700BF80B483B000AF78607B684FF6FC
:10087000FF721A607B6800221A717B6800225A712D
:100880007B6800229A717B680022DA710C37BD46C2
:100890005DF8047B704700BF80B483B000AF786020
:1008A0000B467B807B687A881A830C37BD465DF8DF
:1008B000047B704780B483B000AF78600B467B80C8
:1008C0007B687A885A830C37BD465DF8047B704795
:1008D00080B485B000AF786013460A467A807B709A
:1008E0000023FB600023BB607A787B8803F007035A
:1008F0009B0002FA03F3FB607B88DB089BB21A467D
:100900007B88DB089BB219467B68083153F82110BD
:100910007B8803F007039B000F2000FA03F3DB43FF
:1009200019407B68083243F822107B88DB089BB2B1
:100930001A467B68083253F82220FB681343BB60D9
:100940007B88DB089BB21A467B680832B96843F89B
:1009500022101437BD465DF8047B704780B582B025
:1009600000AF78607A68174B9A420AD14FF40010B2
:10097000012100F0DFFA4FF40010002100F0DAFA54
:100980001CE07A68104B9A420AD14FF48000012192
:1009900000F0D0FA4FF48000002100F0CBFA0DE017
:1009A0007A680A4B9A4209D14FF40000012100F005
:1009B000C1FA4FF40000002100F0BCFA0837BD4630
:1009C00080BD00BF0054004000580040005C004063
:1009D00080B58AB000AF786039600023FB840023C3
:1009E0007B840423BB84574BFB617B689B88FB841F
:1009F000FB8C23F03F03FB8407F10C03184600F047
:100A000095F97B69FB61FA694F4BA3FB02139B0CC1
:100A10007B84FA8C7B8C1343FB847B68FA8C9A80F2
:100A20007B681B889BB223F001039AB27B681A8013
:100A30000023FB843B681A68444B9A4215D83B68F4
:100A40001B685B00FA69B2FBF3F3BB84BB8C032B1E
:100A500001D80423BB84FA8CBB8C1343FB847B8CAE
:100A600001339AB27B681A8440E03B68DA884BF61F
:100A7000FF739A4209D13B681A6813465B0013441E
:100A8000FA69B2FBF3F3BB840EE03B681A681346C5
:100A90009B0013449A001344FA69B2FBF3F3BB843E
:100AA000BB8C43F48043BB84BB8CC3F30B03002B90
:100AB00003D1BB8C43F00103BB84BA8CFB8C134382
:100AC0009BB26FEA43436FEA5343FB847B8C4FF442
:100AD000967202FB03F31E4A82FB03129211DB178C
:100AE000D31A9BB201339AB27B681A847B68FA8C62
:100AF0009A837B681B889BB243F001039AB27B68A0
:100B00001A807B681B88FB84FB8C23F4816323F0B1
:100B10000203FB843B689A883B685B8913439AB263
:100B2000FB8C1343FB847B68FA8C1A803B689A89A0
:100B30003B681B8913439AB27B681A812837BD46EC
:100B400080BD00BF00127A0083DE1B43A086010037
:100B5000D34D621080B483B000AF78600B46FB7059
:100B6000FB78002B08D07B681B889BB243F0010305
:100B70009AB27B681A8007E07B681B889BB223F0DF
:100B800001039AB27B681A800C37BD465DF8047B7E
:100B9000704700BF80B483B000AF78600B46FB7035
:100BA000FB78002B08D07B681B889BB243F48073D2
:100BB0009AB27B681A8007E07B681B889BB223F49B
:100BC00080739AB27B681A800C37BD465DF8047B4F
:100BD000704700BF80B483B000AF78600B46FB70F5
:100BE000FB78002B08D07B681B889BB243F4007312
:100BF0009AB27B681A8007E07B681B889BB223F45B
:100C000000739AB27B681A800C37BD465DF8047B8E
:100C1000704700BF80B483B000AF786013460A46C7
:100C2000FA70BB70BB78002B04D0FB7843F0010353
:100C3000FB7003E0FB7823F00103FB70FB789AB2B2
:100C40007B681A820C37BD465DF8047B704700BF95
:100C500080B483B000AF78600B46FB70FB78002B4C
:100C600008D07B681B889BB243F480639AB27B6890
:100C70001A8007E07B681B889BB223F480639AB2DA
:100C80007B681A800C37BD465DF8047B704700BF57
:100C900080B483B000AF78600B46FB70FB789AB2EB
:100CA0007B681A820C37BD465DF8047B704700BF35
:100CB00080B483B000AF78607B681B8A9BB2DBB2E4
:100CC00018460C37BD465DF8047B704780B487B08A
:100CD00000AF7860396000233B610023FB60002394
:100CE000BB600023FB757B689B8A9BB2FB607B68C3
:100CF0001B8B9BB2BB60BB681B04BB60FA68BB6804
:100D0000134323F07F433B613A693B681A403B68D9
:100D10009A4202D10123FB7501E00023FB75FB7DA4
:100D200018461C37BD465DF8047B704780B489B017
:100D300000AF78600023BB6100237B610023FB616F
:100D400002233B610023FB600223BB60484B9B688E
:100D500003F00C03BB61BB69042B07D0082B09D03F
:100D6000002B3FD17B68434A1A603FE07B68424AD0
:100D70001A603BE03E4B5B6803F480039B0DFB6015
:100D80003B4B5B6803F03F03BB60FB68002B0DD05F
:100D9000394ABB68B2FBF3F2354B596847F6C0736A
:100DA0000B409B0903FB02F3FB610CE0314ABB687B
:100DB000B2FBF3F22E4B596847F6C0730B409B0908
:100DC00003FB02F3FB612A4B5B6803F440331B0C0B
:100DD00001335B003B61FA693B69B2FBF3F27B686C
:100DE0001A6003E07B68234A1A6000BF204B9B68AF
:100DF00003F0F003BB61BB691B09BB611F4ABB6900
:100E000013441B78DBB27B617B681A687B69DA402C
:100E10007B685A60164B9B6803F4E053BB61BB6967
:100E20009B0ABB61154ABB6913441B78DBB27B612B
:100E30007B685A687B69DA407B689A600C4B9B68D8
:100E400003F46043BB61BB695B0BBB610B4ABB69CD
:100E500013441B78DBB27B617B685A687B69DA409C
:100E60007B68DA602437BD465DF8047B704700BFBD
:100E7000003802400024F40040787D010400002086
:100E800080B483B000AF78600B46FB70FB78002B1A
:100E900006D0094B084A116B7A680A431A6306E0C8
:100EA000054B054A116B7A68D2430A401A630C3726
:100EB000BD465DF8047B70470038024080B483B0C3
:100EC00000AF78600B46FB70FB78002B06D0094B17
:100ED000084A116C7A680A431A6406E0054B054A11
:100EE000116C7A68D2430A401A640C37BD465DF82B
:100EF000047B70470038024080B483B000AF786054
:100F00000B46FB70FB78002B06D0094B084A516C4E
:100F10007A680A435A6406E0054B054A516C7A68C0
:100F2000D2430A405A640C37BD465DF8047B7047D3
:100F30000038024080B483B000AF78600B46FB708D
:100F4000FB78002B06D0094B084A116A7A680A43DD
:100F50001A6206E0054B054A116A7A68D2430A40D4
:100F60001A620C37BD465DF8047B704700380240BA
:100F700080B485B000AF786039600023FB817B6866
:100F80001B88FB81FB8903F44153FB813B681A8872
:100F90003B685B8813439AB23B689B8813439AB2C1
:100FA0003B68DB8813439AB23B681B8913439AB2B0
:100FB0003B685B8913439AB23B689B8913439AB29F
:100FC0003B68DB8913439AB2FB891343FB817B683F
:100FD000FA891A807B689B8B9BB223F400639AB2D8
:100FE0007B689A833B681A8A7B681A821437BD46ED
:100FF0005DF8047B704700BF80B483B000AF7860B9
:101000000B46FB70FB78002B08D07B681B889BB2DB
:1010100043F040039AB27B681A8007E07B681B8824
:101020009BB223F040039AB27B681A800C37BD460E
:101030005DF8047B704700BF80B483B000AF786078
:101040000B467B807A884FF6FF639A4208D07B6814
:101050001B889BB243F480739AB27B681A8007E0C6
:101060007B681B889BB223F480739AB27B681A80DA
:101070000C37BD465DF8047B704700BF80B483B079
:1010800000AF78607B689B899BB218460C37BD46E1
:101090005DF8047B704700BF80B483B000AF786018
:1010A0000B467B807B687A889A810C37BD465DF859
:1010B000047B704780B485B000AF78600B467B80BE
:1010C0000023FB737B681B899AB27B8813409BB219
:1010D000002B02D00123FB7301E00023FB73FB7B99
:1010E00018461437BD465DF8047B704790B484B051
:1010F00000AF02460B46FA71BB710023FB60BB795F
:1011000003F003039B000F2202FA03F3FB60154B6D
:10111000BA799208D2B21349B8798008C0B20230C5
:1011200051F82000F968C9430140023243F8221007
:101130000C4BBA799208D2B20A49B8798008C0B289
:10114000023051F82000FC79B97901F003018900DF
:1011500004FA01F10143023243F822101037BD4670
:1011600090BC70470038014080B485B000AF786013
:1011700039600023FB817B681B88FB817A68284BE0
:101180009A4213D07A68274B9A420FD07B68B3F10A
:10119000804F0BD07A68244B9A4207D07A68234B51
:1011A0009A4203D07A68224B9A4208D1FB8923F0F5
:1011B0007003FB813B685A88FB891343FB817A6883
:1011C0001C4B9A420CD07A681B4B9A4208D0FB8980
:1011D00023F44073FB813B681A89FB891343FB812D
:1011E0007B68FA891A803B685A687B68DA623B68D8
:1011F0001A887B681A857A68094B9A4203D07A6804
:10120000084B9A4204D13B689B7A1A467B681A863F
:101210007B6801229A821437BD465DF8047B7047D3
:1012200000000140000401400004004000080040AC
:10123000000C0040001000400014004080B483B057
:1012400000AF78607B684FF0FF325A607B68002205
:101250001A807B6800221A817B6800225A807B6892
:1012600000229A720C37BD465DF8047B704700BFC0
:1012700080B483B000AF78600B46FB70FB78002B26
:1012800008D07B681B889BB243F001039AB27B684D
:101290001A8007E07B681B889BB223F001039AB297
:1012A0007B681A800C37BD465DF8047B704700BF31
:1012B00080B483B000AF786013460A467A807B70B2
:1012C0007B78002B08D07B689B899AB27B8813437C
:1012D0009AB27B689A8109E07B689B899AB27B8885
:1012E000DB439BB213409AB27B689A810C37BD46B0
:1012F0005DF8047B704700BF80B485B000AF7860B4
:101300000B467B800023FB730023BB8100237B8182
:101310007B681B8A9AB27B881340BB817B689B8960
:101320009AB27B8813407B81BB89002B05D07B89D7
:10133000002B02D00123FB7301E00023FB73FB7B36
:1013400018461437BD465DF8047B704780B483B0FF
:1013500000AF78600B467B807B88DB439AB27B686A
:101360001A820C37BD465DF8047B704780B58AB0A1
:1013700000AF7860396000237B6200233B6200236A
:10138000FB610023BB617B681B8A9BB27B627B6A2B
:1013900023F440537B623B68DB887A6A13437B62A9
:1013A0007B6A9AB27B681A827B689B899BB27B625C
:1013B0007B6A23F4B05323F00C037B623B689A886A
:1013C0003B681B8913439AB23B685B8913439BB20A
:1013D0007A6A13437B627B6A9AB27B689A817B68E4
:1013E0009B8A9BB27B627B6A23F440737B623B687F
:1013F0009B897A6A13437B627B6A9AB27B689A8282
:1014000007F108031846FFF791FC7A68314B9A42BE
:1014100003D07A68304B9A4202D17B693B6201E08B
:101420003B693B627B689B899BB29BB21BB2002BE2
:101430000CDA3A6A13469B0013449A001A443B683C
:101440001B685B00B2FBF3F3FB610BE03A6A1346E7
:101450009B0013449A001A443B681B689B00B2FB34
:10146000F3F3FB61FA691D4BA3FB02135B091B013C
:101470007B627B6A1B09642202FB03F3FA69D31ABD
:10148000BB617B689B899BB29BB21BB2002B0DDAC0
:10149000BB69DB0003F13202104BA3FB02135B09B3
:1014A00003F007037A6A13437B620CE0BB691B01FC
:1014B00003F13202094BA3FB02135B0903F00F0394
:1014C0007A6A13437B627B6A9AB27B681A812837F7
:1014D000BD4680BD00100140001401401F85EB5146
:1014E00080B483B000AF78607B684FF416521A6006
:1014F0007B6800229A807B680022DA807B68002269
:101500001A817B680C225A817B6800229A810C37F1
:10151000BD465DF8047B704780B483B000AF78604F
:101520000B46FB70FB78002B08D07B689B899BB235
:1015300043F400539AB27B689A8107E07B689B89E9
:101540009BB223F400539AB27B689A810C37BD4654
:101550005DF8047B704700BF80B483B000AF786053
:101560000B467B807B88C3F308039AB27B689A8022
:101570000C37BD465DF8047B704700BF80B483B074
:1015800000AF786013460A467A807B707B78002B28
:1015900008D07B689B8A9AB27B8813439AB27B6897
:1015A0009A8209E07B689B8A9AB27B88DB439BB274
:1015B00013409AB27B689A820C37BD465DF8047B73
:1015C000704700BF80B487B000AF786013460A460A
:1015D0007A807B7000233B610023FB600023BB60AB
:1015E00000237B617B687B617B88DBB25B09DBB2BC
:1015F0003B617B8803F01F03FB60FB68012202FA5A
:1016000003F3BB603B69012B03D17B690C337B6126
:1016100009E03B69022B03D17B6910337B6102E057
:101620007B6914337B617B78002B06D07B697A69F8
:101630001168BA680A431A6006E07B697A69116822
:10164000BA68D2430A401A601C37BD465DF8047B75
:10165000704700BF80B487B000AF78600B467B80D6
:101660000023FB6000237B610023BB600023FB742D
:101670007B88DBB25B09DBB2BB607B8803F01F03B6
:101680007B617B69012202FA03F37B61BB68012B5A
:1016900006D17B689B899BB27A6913407B610FE01E
:1016A000BB68022B06D17B681B8A9BB27A69134008
:1016B0007B6105E07B689B8A9BB27A6913407B6102
:1016C0007B881B0A9BB2FB60FB68012202FA03F3D2
:1016D000FB607B681B889BB2FA681340FB607B69E8
:1016E000002B05D0FB68002B02D00123FB7401E026
:1016F0000023FB74FB7C18461C37BD465DF8047B59
:10170000704700BF80B485B000AF78600B467B8027
:101710000023FB810023BB817B881B0AFB81FB89A3
:10172000012202FA03F3BB81BB89DB439AB27B68D7
:101730001A801437BD465DF8047B704780B483B0CF
:1017400000AF78607B6818460C37BD465DF8047BB7
:10175000704700BF80B483B000AF78607B681846E4
:101760000C37BD465DF8047B704700BF80B588B07C
:1017700000AF78601E48FFF7F1F8C023BB6002237A
:101780003B730123BB730123FB7301237B7307F1BD
:10179000080318481946FEF7D7FF16480621042209
:1017A000FFF796F8134807210422FFF791F8124B30
:1017B0003B610023BB824BF6FF73FB820A233B8312
:1017C0004FF480637B834FF48043BB8307F11003A6
:1017D00007481946FFF7FCF805480121FFF7BAF959
:1017E00003480121FFF734FA2037BD4680BD00BF12
:1017F0000054004000040240A086010080B584B07F
:1018000000AF786013460A46FA703B8040480121D9
:10181000FFF7C0F90A2000F009F900BF3C483D4934
:10182000FFF754FA0346002B14BF00230123DBB259
:10183000002BF3D13648A0210022FFF7EBF90A2054
:1018400000F0F4F800BF32483349FFF73FFA03468F
:10185000002B14BF00230123DBB2002BF3D13B8804
:10186000DBB22B481946FFF713FA0A2000F0DEF826
:1018700000BF27482949FFF729FA0346002B14BF68
:1018800000230123DBB2002BF3D121480121FFF714
:1018900081F90A2000F0CAF800BF1D481D49FFF772
:1018A00015FA0346002B14BF00230123DBB2002BE3
:1018B000F3D11748A1210122FFF7ACF90A2000F06B
:1018C000B5F800BF12481649FFF700FA0346002B8F
:1018D00014BF00230123DBB2002BF3D10C48FFF728
:1018E000E7F90346FB73642000F0A0F808480021E4
:1018F000FFF7AEF906480121FFF76CF94FF47A7053
:1019000000F094F8FB7B18461037BD4680BD00BF41
:10191000005400400100030082000700840007001B
:101920004000030080B582B000AF04233B60002379
:101930003B710123FB7100237B713B461048194624
:10194000FEF702FF08233B6000233B710123FB717C
:1019500000237B713B460A481946FEF7F5FE10232B
:101960003B6000233B710123FB7100237B713B46ED
:1019700003481946FEF7E8FE0837BD4680BD00BFA4
:101980000010024080B400AF094B1B6903F0040350
:10199000002B0CBF00230123DBB2002B01D001235D
:1019A00000E000231846BD465DF8047B704700BF89
:1019B0000010024080B400AF094B1B6903F008031C
:1019C000002B0CBF00230123DBB2002B01D001232D
:1019D00000E000231846BD465DF8047B704700BF59
:1019E0000010024080B400AF094B1B6903F01003E4
:1019F000002B0CBF00230123DBB2002B01D00123FD
:101A000000E000231846BD465DF8047B704700BF28
:101A10000010024080B483B000AF78600023184605
:101A20000C37BD465DF8047B704700BF80B485B0BD
:101A300000AF78600023FB60FB680133FB607A68CD
:101A400013469B001344FA689A422CBF00230123DB
:101A5000DBB2002BF0D11437BD465DF8047B704734
:101A600080B400AFBD465DF8047B704780B400AF22
:101A7000BD465DF8047B704780B400AFBD465DF89D
:101A8000047B704780B582B000AF78607B6800222D
:101A90001A607B6800225A607B6800229A607B682B
:101AA0000022DA607B6800221A617B6800225A619A
:101AB0007B6800229A617B680022DA617B680022E1
:101AC0001A627B6800225A627B6800229A627B68F5
:101AD0000022DA627B6800221A637B6800225A6364
:101AE0007B6800229A637B680022DA637B680022AD
:101AF0001A647B6800225A647B6800229A647B68BF
:101B00000022DA647B6800221A657B6800225A652D
:101B10007B6800229A657B680022DA657B68002278
:101B20001A667B6800225A667B68002283F8682068
:101B30007B68002283F869207B680022DA667B6874
:101B400000221A677B68002283F87420062003F0C5
:101B5000CBF802467B68DA66062003F0C5F8024639
:101B60007B681A677B6818460837BD4680BD00BF92
:101B700080B582B000AF78607B68DB6E002B08D048
:101B80007B68DB6E002B04D07B68DB6E184603F0AD
:101B9000ADF87B681B6F002B08D07B681B6F002B98
:101BA00004D07B681B6F184603F0A0F87B681B6E9F
:101BB000002B08D07B681B6E002B04D07B681B6E4B
:101BC000184603F093F87B685B6E002B08D07B68A7
:101BD0005B6E002B04D07B685B6E184603F086F8C2
:101BE0007B6818460837BD4680BD00BF90B589B0F8
:101BF00000AF78600423FB6101F088FD4FF47A7038
:101C0000FFF714FF00F0EAFA4FF47A70FFF70EFFC7
:101C1000FFF788FE4FF47A70FFF708FF7B681B68B8
:101C2000002B09D07B681C68002C05D02046FFF7EC
:101C300091FD204602F085FF012008F0F7FE0446E2
:101C40002046FFF77BFD7B681C607B681B68002BD0
:101C500000F0AD817B681B681846FFF787FD7F2089
:101C600003F042F803463B6100237B830FE07B8B4C
:101C70003A69D4187B681A687B8B104600211A4693
:101C8000FFF7BCFD034623707B8B01337B837B8B8B
:101C90007E2BECD93B69FB607B681C68002C05D06F
:101CA0002046FFF757FD204602F04BFFFFF782FE6C
:101CB0000346002B0CBF00230123DBB2002B4BD0CB
:101CC0007B68DB6EFA68127F1A707B68DB6E01330B
:101CD000FA68D27E1A707B68DB6E0233FA68927EF5
:101CE0001A707B68DB6E033301221A707B68DB6E2F
:101CF0000433FA68928A92B21212D2B21A707B68D6
:101D0000DB6E0533FA68928A92B2D2B21A707B689F
:101D10001B6FE6221A707B681B6F0133D4221A7086
:101D20007B681B6F0233D3221A707B681B6F0333EF
:101D300001221A707B681B6F0433FA68928A92B290
:101D40001212D2B21A707B681B6F0533FA68928A3E
:101D500092B2D2B21A704AE07B681B6FFA68127FA7
:101D60001A707B681B6F0133FA68D27E1A707B6829
:101D70001B6F0233FA68927E1A707B681B6F033305
:101D800001221A707B681B6F0433FA68928A92B240
:101D90001212D2B21A707B681B6F0533FA68928AEE
:101DA00092B2D2B21A707B68DB6EE6221A707B6840
:101DB000DB6E0133D4221A707B68DB6E0233D322D0
:101DC0001A707B68DB6E033301221A707B68DB6E4E
:101DD0000433FA68928A92B21212D2B21A707B68F5
:101DE000DB6E0533FA68928A92B2D2B21A70FFF7AC
:101DF000C9FD0346002B0CBF00230123DBB2002BDF
:101E000004D07B68002283F8742003E07B68012201
:101E100083F874207B6893F87430002B13D0FB6830
:101E20001A687B685A64FB68DA687B689A64FB68A6
:101E30001A697B68DA64FB685A687B685A65FB68D4
:101E40009A687B689A657B68002283F86820002383
:101E50007B760DE07B7EFA6813449B7F002B04D1D8
:101E60007B687A7E83F8682005E07B7E01337B7691
:101E70007B7E2F2BEED97B681B6E002B08D07B68F6
:101E80001B6E002B04D07B681B6E184602F02EFFE1
:101E90007B6893F86830002B2AD07B6893F8683011
:101EA0000133184602F020FF02467B681A667B6801
:101EB0001B6E002B1CD000233B760BE07B681A6E58
:101EC0003B7E13443A7EF9680A44927F1A703B7E47
:101ED00001333B767B6893F868303A7E9A42EDD3C3
:101EE0007B681A6E7B6893F86830134400221A707E
:101EF0007B68002283F869200023FB750EE0FB7DE0
:101F0000FA68134493F84E30002B04D17B68FA7DB5
:101F100083F8692005E0FB7D0133FB75FB7D2F2BEA
:101F2000EDD97B685B6E002B08D07B685B6E002B65
:101F300004D07B685B6E184602F0D8FE7B6893F88D
:101F40006930002B2AD07B6893F86930013318463A
:101F500002F0CAFE02467B685A667B685B6E002B05
:101F60001CD00023BB750BE07B685A6EBB7D13440D
:101F7000BA7DF9680A44927F1A70BB7D0133BB7544
:101F80007B6893F86930BA7D9A42EDD37B685A6ECC
:101F90007B6893F86930134400221A700023FB60B9
:101FA0003B69002B02D0386902F0A0FE01E000235B
:101FB000FB614FF47A70FFF739FD01F0D1FA4FF46D
:101FC0007A70FFF733FD7B68DB6E184600F01EFC6D
:101FD0004FF47A70FFF72AFD7B681B6F184600F0FC
:101FE000E1FF4FF47A70FFF721FD142040F27641B3
:101FF00000F0EAFB4FF47A70FFF718FD142040F26E
:10200000764100F0ADFF0B48FFF710FD00F0FAF845
:1020100000F02AF900F03CF900F044F9FB6904E013
:10202000204602F08EFD02F090FD18462437BD4692
:1020300090BD00BFA086010080B485B000AF78607D
:102040000023FB600223FB60FB6818461437BD4683
:102050005DF8047B704700BF80B485B000AF786046
:102060000023FB600323FB60FB6818461437BD4662
:102070005DF8047B704700BF80B485B000AF786026
:102080000023FB600A23FB60FB6818461437BD463B
:102090005DF8047B704700BF80B485B000AF786006
:1020A0000023FB60FB6818461437BD465DF8047BCF
:1020B000704700BF80B485B000AF78600023FB603C
:1020C000FEE700BF90B583B000AF01237B607820AE
:1020D00008F0ACFC03461C462046FFF7D3FC3C60EE
:1020E0003B68002B49D03AE07B68013B092B36D88E
:1020F00001A252F823F000BF212100083721000877
:10210000412100082D2100084B2100085F21000813
:102110005F2100085F2100085F21000855210008A9
:102120003868FFF763FD03467B6018E03868FFF707
:1021300083FF786013E03868FFF78EFF78600EE069
:102140003868FFF799FF786009E03868FFF7A4FF67
:10215000786004E03868FFF7ADFF786000BF7B6807
:10216000002BC1D13C68002C05D02046FFF700FDB4
:10217000204602F0E6FC00233B60002304E02046FA
:1021800002F0DFFC02F0E1FC18460C37BD4690BDC2
:1021900080B582B000AF786039607B68012B0CD1CC
:1021A0003A684FF6FF739A4207D1054808F078FC69
:1021B00003480449044A02F0BFFC0837BD4680BD0D
:1021C000E0010020B1AB00080000002080B500AFA6
:1021D00001204FF6FF71FFF7DBFF80BD80B500AF38
:1021E00006480121FEF74CFE05480121FEF766FE78
:1021F00045F210000121FEF77FFE80BD1F00200088
:102200001180220080B582B000AF4FF480533B6054
:1022100001233B710023BB710023FB7101237B7100
:102220003B460B481946FEF78FFA4FF400533B60CC
:1022300001233B710023BB710023FB7101237B71E0
:102240003B4603481946FEF77FFA0837BD4680BD76
:102250000010024080B500AF02484FF48051FEF7F5
:102260001BFB80BD0010024080B500AF02484FF458
:102270008051FEF71FFB80BD0010024080B500AF0B
:1022800002484FF40051FEF707FB80BD00100240EA
:1022900080B500AF02484FF40051FEF70BFB80BD44
:1022A0000010024080B582B000AF4FF440733B6035
:1022B00001233B710023BB710023FB7100237B7161
:1022C0003B4603481946FEF73FFA0837BD4680BD36
:1022D000000C024080B483B000AF0346FB71FB7971
:1022E000012B08D1164B4FF400721A83144B4FF494
:1022F00080725A831FE0FB79022B08D1104B4FF4F8
:1023000000725A830E4B4FF480721A8313E0FB79EC
:10231000032B08D10A4B4FF480721A83084B4FF4F9
:1023200000721A8307E0064B4FF480725A83044B05
:102330004FF400725A830C37BD465DF8047B70473A
:10234000000C024080B483B000AF0023FB71124B3D
:102350001B6903F40063002B0CBF00230123DBB2D5
:10236000002B03D0FB7943F00103FB710A4B1B697F
:1023700003F48063002B0CBF00230123DBB2002B8E
:1023800003D0FB7943F00203FB71FB7918460C374D
:10239000BD465DF8047B7047000C024080B584B0F8
:1023A00000AF0346FB710023FB600CE0FB680133C8
:1023B000FB60FB68B3F57A7F94BF00230123DBB297
:1023C000002B00D00BE01D480221FEF773FE0346F0
:1023D000002B14BF00230123DBB2002BE6D1FB79D5
:1023E0009BB216481946FEF757FE0220FFF71EFB68
:1023F0000023FB600CE0FB680133FB60FB68B3F576
:102400007A7F94BF00230123DBB2002B00D00BE0C6
:102410000A480121FEF74EFE0346002B14BF00239D
:102420000123DBB2002BE6D10448FEF727FE03466A
:10243000DBB218461037BD4680BD00BF003C0040EF
:1024400080B584B000AF02460B46FA71BB711248EA
:102450000121FEF72FFABB7903F01F03DAB2FB79F3
:102460001343DBB2DBB21846FFF798FFBB795BB2D0
:10247000002B02DAFF20FFF791FFFF20FFF78EFF0E
:102480000346FB7304480121FEF706FAFB7B18465E
:102490001037BD4680BD00BF000C024080B582B041
:1024A00000AF13460246FA710A46BA717B711548AD
:1024B0000121FEF7FFF9BB7903F01F03DAB2FB79C4
:1024C0001343DBB2DBB21846FFF768FF7B7918468F
:1024D000FFF764FF00BF0C488021FEF7EBFD0346C9
:1024E000002B0CBF00230123DBB2002BF3D1022011
:1024F000FFF79CFA03480121FEF7CEF90837BD46E5
:1025000080BD00BF000C0240003C004080B500AF21
:102510000A480121FEF7CEF9FF20FFF73FFF0A200E
:10252000FFF784FA05480121FEF7B6F94FF47A70F7
:10253000FFF77CFA024B00221A7080BD000C0240AB
:10254000E401002080B584B000AF0346FB71FB7945
:1025500003F01F031A2B1EDCFB795B11DBB203F0C7
:102560000303FB730D4B1B78DBB2FA7B9A420CBF63
:1025700000230123DBB2002B0DD0A0201F2103225A
:10258000FFF78CFFFB7B80201F211A46FFF786FF99
:10259000024BFA7B1A701037BD4680BDE401002063
:1025A00080B582B000AF0346FB71FB791846FFF798
:1025B000C9FFFB7900201946FFF742FF0346184682
:1025C0000837BD4680BD00BF90B583B000AF03465D
:1025D000FB71FB791846FFF7B5FFFB790020194620
:1025E000FFF72EFF03461C46FB790133DBB20020C8
:1025F0001946FFF725FF03461B029BB222461343F1
:102600009BB29BB218460C37BD4690BD80B582B0D8
:1026100000AF02460B46FA71BB71FB791846FFF713
:1026200091FFFA79BB79402011461A46FFF736FF31
:102630000837BD4680BD00BF80B582B000AF0246FE
:102640000B46FA71BB80FB791846FFF77BFFBB880E
:10265000DBB2FA79402011461A46FFF71FFFFB79DB
:102660000133DAB2BB881B12DBB2402011461A4696
:10267000FFF714FF0837BD4680BD00BF80B582B0AC
:1026800000AF02460B46FA71BB71FB791846FFF7A3
:1026900059FFFA79BB79A02011461A46FFF7FEFED2
:1026A0000837BD4680BD00BF80B582B000AF02468E
:1026B0000B46FA71BB71FB791846FFF743FFFA79B5
:1026C000BB79802011461A46FFF7E8FE0837BD4661
:1026D00080BD00BF90B583B000AF78600B467B80B3
:1026E00010480121FEF7E6F83A20FFF757FE07E011
:1026F0007C68631C7B60FF20FFF750FE034623705D
:102700007B885A1E7A80002B0CBF00230123DBB28A
:10271000002BEDD103480121FEF7BEF80C37BD4672
:1027200090BD00BF000C024080B582B000AF786061
:102730000B467B800F480121FEF7BCF87A20FFF79B
:102740002DFE06E07B685A1C7A601B781846FFF75E
:1027500025FE7B885A1E7A80002B0CBF00230123A4
:10276000DBB2002BEED103480121FEF795F80837C4
:10277000BD4680BD000C024080B582B000AF03466C
:10278000FB71FB79D4201946FFF740FFD2200121CD
:10279000FFF78AFF00BFEA20FFF702FF034603F0BE
:1027A0000103002B0CBF00230123DBB2002BF2D16D
:1027B000D2200121FFF762FFD820FFF705FF034673
:1027C00018460837BD4680BD80B582B000AF0246CE
:1027D0000B46FA71BB80FB79D4201946FFF716FF30
:1027E000BB88D6201946FFF727FF00BFEA20FFF776
:1027F000D7FE034603F00103002B0CBF0023012387
:10280000DBB2002BF2D10837BD4680BD80B582B067
:1028100000AF78605A480121FEF73EF83220FFF7FA
:1028200005F957480121FEF745F83220FFF7FEF879
:1028300053480121FEF730F83220FFF7F7F85048EF
:102840000221FEF729F83220FFF7F0F84C48022168
:10285000FEF730F83220FFF7E9F849480221FEF789
:102860001BF83220FFF7E2F8FFF750FE3220FFF7A7
:10287000DDF808200021FFF7DFFE0820FFF7A4FEA7
:102880000C200021FFF7D8FE0A2041F2CF11FFF7FC
:10289000D3FE3C4B00221A80042041F2D011FFF7F6
:1028A000CBFE0420FFF790FE3820A921FFF7AEFEF3
:1028B000282043F23F01FFF7BFFE30204FF2F971AD
:1028C000FFF7BAFEC0200D21FFF7A0FEC1200021B6
:1028D000FFF79CFEC2203321FFF798FEC62040F68A
:1028E0001241FFF7A9FEC4201221FFF78FFECA2074
:1028F0004FF4BE61FFF7A0FE7B681B78E420194609
:10290000FFF784FE7B6801331B78E5201946FFF74B
:102910007DFE7B6802331B78E2201946FFF776FEC6
:102920007B6803331B78E3201946FFF76FFE7B6853
:1029300004331B78E0201946FFF768FE7B680533F7
:102940001B78E1201946FFF761FE00204FF48071EB
:10295000FFF73AFF10204FF48071FFF735FF142086
:1029600040F27651FFF730FF1F200421FFF79CFE55
:102970001B20C021FFF798FE0837BD4680BD00BF71
:10298000000C0240E601002080B584B000AF786002
:102990000B467B800023FB601F208021FFF784FE15
:1029A0000120FFF743F81F208021FFF767FE012079
:1029B000FFF73CF822E0FB680133FB60FA6842F263
:1029C0000F739A42D4BF00230123DBB2002B00D047
:1029D00021E01C20FFF7E4FD034603F00203002B77
:1029E0000CBF00230123DBB2002B07D01F20802166
:1029F000FFF75AFE1F208021FFF740FE1F20FFF740
:102A0000CFFD034603F00803002B0CBF0023012376
:102A1000DBB2002BCFD1022041F2D011FFF70CFE28
:102A200013480121FFF780FE7B8878681946FFF77D
:102A30007BFE042041F2D011FFF7FEFD0120FEF7DE
:102A4000F5FF7B8803F58E5310339BB206201946A1
:102A5000FFF7F2FD0120FEF7E9FF1F200821FFF735
:102A600023FE0120FEF7E2FF1037BD4680BD00BF08
:102A7000B42D020880B584B000AF78600B467B802F
:102A80000023FB813920FFF78BFD0346002B0CBF91
:102A900000230123DBB2002B3AD0204B1B889BB2D2
:102AA00000201946FFF7C8FD1C480221FFF712FE5F
:102AB00007F10A0318460221FFF70CFE07F108038D
:102AC00018460221FFF706FE3B8903F08003002B26
:102AD0000DD07B89043BFB81FA897B889A4201D91E
:102AE0007B88FB81FB8978681946FFF7F3FD0B4B68
:102AF0001B889BB2013B9BB2C3F30C03BB81BB8918
:102B00000C201946FFF798FD1E204021FFF7CCFD51
:102B1000FB8918461037BD4680BD00BFE601002086
:102B200080B584B000AF0346FB710023FB600FE06B
:102B3000FB680133FB60FB68B3F57A7F94BF002329
:102B40000123DBB2002B03D0204800F0CBFD0BE0CB
:102B50001F480221FEF7AEFA0346002B14BF0023E4
:102B60000123DBB2002BE3D1FB799BB21848194655
:102B7000FEF792FA0220FEF759FF0023FB600FE0F8
:102B8000FB680133FB60FB68B3F57A7F94BF0023D9
:102B90000123DBB2002B03D00E4800F0A3FD0BE0B5
:102BA0000B480121FEF786FA0346002B14BF0023D1
:102BB0000123DBB2002BE3D10548FEF75FFA0346A1
:102BC000DBB218461037BD4680BD00BFBC2D0208E1
:102BD00000300140D02D020880B584B000AF02461D
:102BE0000B46FA71BB7112482021FDF763FEBB79D9
:102BF00003F01F03DAB2FB791343DBB2DBB21846F2
:102C0000FFF78EFFBB795BB2002B02DAFF20FFF7E4
:102C100087FFFF20FFF784FF0346FB730448202152
:102C2000FDF73AFEFB7B18461037BD4680BD00BF5E
:102C30000008024080B582B000AF13460246FA7128
:102C40000A46BA717B7115482021FDF733FEBB7926
:102C500003F01F03DAB2FB791343DBB2DBB2184691
:102C6000FFF75EFF7B791846FFF75AFF00BF0C485D
:102C70008021FEF71FFA0346002B0CBF002301231F
:102C8000DBB2002BF3D10220FEF7D0FE0348202157
:102C9000FDF702FE0837BD4680BD00BF00080240B8
:102CA0000030014080B500AF0A482021FDF702FE48
:102CB000FF20FFF735FF0A20FEF7B8FE0548202168
:102CC000FDF7EAFD4FF47A70FEF7B0FE024B0022EA
:102CD0001A7080BD00080240E801002080B584B071
:102CE00000AF0346FB71FB7903F01F031A2B1EDCB8
:102CF000FB795B11DBB203F00303FB730D4B1B7815
:102D0000DBB2FA7B9A420CBF00230123DBB2002B1B
:102D10000DD0A0201F210322FFF78CFFFB7B80201A
:102D20001F211A46FFF786FF024BFA7B1A701037F5
:102D3000BD4680BDE801002080B582B000AF0346EB
:102D4000FB71FB791846FFF7C9FFFB790020194694
:102D5000FFF742FF034618460837BD4680BD00BF57
:102D600090B583B000AF0346FB71FB791846FFF7BF
:102D7000B5FFFB7900201946FFF72EFF03461C46DE
:102D8000FB790133DBB200201946FFF725FF03462C
:102D90001B029BB2224613439BB29BB218460C37D0
:102DA000BD4690BD80B582B000AF02460B46FA71B9
:102DB000BB71FB791846FFF791FFFA79BB79402088
:102DC00011461A46FFF736FF0837BD4680BD00BFE3
:102DD00080B582B000AF02460B46FA71BB80FB792A
:102DE0001846FFF77BFFBB88DBB2FA79402011461B
:102DF0001A46FFF71FFFFB790133DAB2BB881B12BB
:102E0000DBB2402011461A46FFF714FF0837BD46D3
:102E100080BD00BF80B582B000AF02460B46FA719C
:102E2000BB71FB791846FFF759FFFA79BB79A020EF
:102E300011461A46FFF7FEFE0837BD4680BD00BFAB
:102E400080B582B000AF02460B46FA71BB71FB79C8
:102E50001846FFF743FFFA79BB79802011461A46DE
:102E6000FFF7E8FE0837BD4680BD00BF90B583B0D0
:102E700000AF78600B467B8010482021FDF71AFDDB
:102E80003A20FFF74DFE07E07C68631C7B60FF2063
:102E9000FFF746FE034623707B885A1E7A80002B7C
:102EA0000CBF00230123DBB2002BEDD1034820210E
:102EB000FDF7F2FC0C37BD4690BD00BF0008024094
:102EC00080B582B000AF78600B467B800F48202130
:102ED000FDF7F0FC7A20FFF723FE06E07B685A1C22
:102EE0007A601B781846FFF71BFE7B885A1E7A8093
:102EF000002B0CBF00230123DBB2002BEED10348D3
:102F00002021FDF7C9FC0837BD4680BD00080240FE
:102F100080B582B000AF0346FB71FB79D42019461F
:102F2000FFF740FFD2200121FFF78AFF00BFEA2010
:102F3000FFF702FF034603F00103002B0CBF002341
:102F40000123DBB2002BF2D1D2200121FFF762FF77
:102F5000D820FFF705FF034618460837BD4680BD59
:102F600080B582B000AF02460B46FA71BB80FB7998
:102F7000D4201946FFF716FFBB88D6201946FFF765
:102F800027FF00BFEA20FFF7D7FE034603F0010347
:102F9000002B0CBF00230123DBB2002BF2D108373A
:102FA000BD4680BD80B582B000AF78605A48202110
:102FB000FDF772FC3220FEF739FD57482021FDF75E
:102FC00079FC3220FEF732FD53482021FDF764FCE6
:102FD0003220FEF72BFD51480121FDF75DFC322028
:102FE000FEF724FD4D480121FDF764FC3220FEF779
:102FF0001DFD4A480121FDF74FFC3220FEF716FD6A
:10300000FFF750FE3220FEF711FD08200021FFF7E8
:10301000DFFE0820FFF7A4FE0C200021FFF7D8FEFA
:103020000A2041F2CF11FFF7D3FE3D4B00221A8058
:10303000042041F2D011FFF7CBFE0420FFF790FEF1
:103040003820A921FFF7AEFE282043F23F01FFF709
:10305000BFFE30204FF2F971FFF7BAFEC0200D21FC
:10306000FFF7A0FEC1200021FFF79CFEC220332104
:10307000FFF798FEC62040F61241FFF7A9FEC420D4
:103080001221FFF78FFECA204FF4BE61FFF7A0FEAA
:103090007B681B78E4201946FFF784FE7B680133C8
:1030A0001B78E5201946FFF77DFE7B6802331B780D
:1030B000E2201946FFF776FE7B6803331B78E32096
:1030C0001946FFF76FFE7B6804331B78E020194632
:1030D000FFF768FE7B6805331B78E1201946FFF790
:1030E00061FE00204FF48071FFF73AFF10204FF48B
:1030F0008071FFF735FF142040F27651FFF730FF63
:103100001F200421FFF79CFE1B20C021FFF798FE23
:103110000837BD4680BD00BF0008024000040240E1
:10312000EA01002080B584B000AF78600B467B8058
:103130000023FB601F208021FFF782FE0120FEF7A5
:1031400075FC1F208021FFF765FE0120FEF76EFC55
:1031500022E0FB680133FB60FA6842F20F739A4287
:10316000D4BF00230123DBB2002B00D021E01C20C0
:10317000FFF7E2FD034603F00203002B0CBF002320
:103180000123DBB2002B07D01F208021FFF758FE60
:103190001F208021FFF73EFE1F20FFF7CDFD0346D5
:1031A00003F00803002B0CBF00230123DBB2002B2C
:1031B000CFD1022041F2D011FFF70AFE13480121BE
:1031C000FFF77EFE7B8878681946FFF779FE0420BA
:1031D00041F2D011FFF7FCFD0120FEF727FC7B88B0
:1031E00003F58E5310339BB206201946FFF7F0FD0E
:1031F0000120FEF71BFC1F200821FFF721FE012004
:10320000FEF714FC1037BD4680BD00BFB42D020888
:1032100080B584B000AF78600B467B800023FB81D3
:103220003920FFF789FD0346002B0CBF0023012343
:10323000DBB2002B3AD0204B1B889BB200201946F2
:10324000FFF7C6FD1C480221FFF710FE07F10A0335
:1032500018460221FFF70AFE07F10803184602216B
:10326000FFF704FE3B8903F08003002B0DD07B8920
:10327000043BFB81FA897B889A4201D97B88FB81D8
:10328000FB8978681946FFF7F1FD0B4B1B889BB251
:10329000013B9BB2C3F30C03BB81BB890C201946D5
:1032A000FFF796FD1E204021FFF7CAFDFB89184657
:1032B0001037BD4680BD00BFEA01002080B588B050
:1032C00000AF4FF4E053BB6102233B770023BB7791
:1032D0000123FB7701237B7707F118036648194622
:1032E000FDF732FA64480A210622FDF7F1FA624836
:1032F0000B210622FDF7ECFA5F480C210622FDF7B0
:10330000E7FA0423BB6100233B770123FB7707F136
:1033100018035A481946FDF717FA0123BB61012328
:103320003B770023BB770023FB7701237B7707F1F3
:10333000180352481946FDF707FA0223BB6101231F
:103340003B770023BB770023FB7701237B7707F1D3
:1033500018034A481946FDF7F7F90023BB800023FC
:103360003B8100237B810023BB814FF40073FB81F1
:1033700000233B8200237B824FF48273FB803B1D42
:103380003F481946FDF7F4FD3D484FF48071FDF7C5
:1033900053FE3B480121FDF72FFEE023BB610223D2
:1033A0003B770023BB770123FB7701237B7707F172
:1033B000180334481946FDF7C7F93248052105229C
:1033C000FDF786FA2F4806210522FDF781FA2D48E0
:1033D00007210522FDF77CFA1023BB6100233B7710
:1033E0000123FB7707F1180323481946FDF7ACF9D1
:1033F0002023BB6101233B770023BB770023FB77AE
:1034000001237B7707F118031B481946FDF79CF948
:103410000123BB6101233B770023BB770023FB77AC
:1034200001237B7707F1180317481946FDF78CF93C
:103430000023BB8000233B8100237B810023BB81D1
:103440004FF40073FB8100233B8200237B824FF407
:103450008273FB803B1D0D481946FDF789FD0B4823
:103460004FF48071FDF7E8FD08480121FDF7C4FD28
:103470002037BD4680BD00BF00080240000C02405E
:10348000003C0040000002400004024000300140C7
:1034900080B586B000AF03200221FDF727FE04238C
:1034A000BB600123BB7300233B730C237B7307F1C9
:1034B00008031846FDF7A8F808233B710A237B711F
:1034C0000523BB710123FB713B1D1846FCF7C0FEB1
:1034D00002200421FDF70AFE1023BB600123BB7309
:1034E00000233B730C237B7307F108031846FDF799
:1034F0008BF80A233B710A237B710523BB710123DF
:10350000FB713B1D1846FCF7A3FE1837BD4680BD76
:1035100080B500AF0420FDF7E5F80346002B0CBF93
:1035200000230123DBB2002B04D0FEF799FA04201C
:10353000FDF7FCF880BD00BF80B500AF1020FDF79F
:10354000D1F80346002B0CBF00230123DBB2002B74
:1035500004D0FEF78BFA1020FDF7E8F880BD00BF1D
:1035600080B500AFFFF7AAFEFFF792FF80BD00BF56
:103570000649074A074B9A42BEBF51F8040B42F86E
:10358000040BF8E7044880470448004770680208C5
:1035900000000020C40100200D370008DD010008F4
:1035A0003349344A002301E041F8043B9142FBD304
:1035B000FEF788FDFEE7FEE7FEE7FEE7FEE7FEE733
:1035C000FEE7FEE7FEE7FEE7FEE7FEE7FEE7FEE7D3
:1035D000FEE7FEE7FEE7FEE7FEE7FEE7FEE7FEE7C3
:1035E000FEE7FEE7FEE7FEE7FEE7FEE7FEE7FEE7B3
:1035F000FEE7FEE7FEE7FEE7FEE7FEE7FEE7FEE7A3
:10360000FEE7FEE7FEE7FEE7FEE7FEE7FEE7FEE792
:10361000FEE7FEE7FEE7FEE7FEE7FEE7FEE7FEE782
:10362000FEE7FEE7FEE7FEE7FEE7FEE7FEE7FEE772
:10363000FEE7FEE7FEE7FEE7FEE7FEE7FEE7FEE762
:10364000FEE7FEE7FEE7FEE7FEE7FEE7FEE7FEE752
:10365000FEE7FEE7FEE7FEE7FEE7FEE7FEE7FEE742
:10366000FEE7FEE7FEE7FEE7FEE7FEE7FEE7000017
:10367000C4010020A818002080B483B000AF034626
:10368000FB71144B1B6803F00103002B00D11CE0FD
:10369000114B1B6803F08073002B00D115E00F4B1A
:1036A0001B680F4B1B6803F00103002B00D10CE0DB
:1036B00000BF4FF060431B78DBB203F00103002B27
:1036C000F7D04FF06043FA791A700C37BD465DF8B9
:1036D000047B7047F0ED00E0FCED00E0800E00E0C0
:1036E000000E00E080B582B000AF786006E07B6835
:1036F0005A1C7A601B781846FFF7BEFF7B681B7860
:10370000002BF4D10837BD4680BD00BF80B500AFA7
:10371000154B154AD2F8882042F47002C3F888206D
:10372000124B124A126842F001021A600F4B00223B
:103730009A600E4A0D4B1B6823F0847323F4803388
:1037400013600A4B0A4A5A60084B084A126822F46E
:1037500080221A60054B0022DA6000F00BF8024B61
:103760004FF000629A6080BD00ED00E0003802403A
:103770001030002480B483B000AF00237B600023AE
:103780003B60354B344A126842F480321A60324B47
:103790001B6803F400333B607B6801337B603B684C
:1037A000002B03D17B68B3F5C06FF0D12A4B1B68A7
:1037B00003F40033002B02D001233B6001E000231F
:1037C0003B603B68012B42D1234B234A126C42F0F1
:1037D00080521A64214B214A126842F480421A60D6
:1037E0001D4B1D4A92689A601B4B1B4A926842F41B
:1037F00020429A60184B184A926842F4A0529A608C
:10380000154B174A5A60144B134A126842F08072E3
:103810001A6000BF104B1B6803F00073002BF9D037
:10382000104B40F205721A600B4B0B4A926822F063
:1038300003029A60084B084A926842F002029A60BA
:1038400000BF054B9B6803F00C03082BF9D10C3724
:10385000BD465DF8047B70470038024000700040B0
:1038600008544004003C024080B483B000AF0346DB
:10387000FB71084B97F907205209F97901F01F01F4
:10388000012000FA01F143F822100C37BD465DF823
:10389000047B704700E100E080B584B000AF3B1DC1
:1038A0001846FDF7CBFC1F23BB8040F64123BB60CD
:1038B0000023FB800023BB733B1D4FF08040194663
:1038C000FDF752FC4FF0804001210122FDF7F0FC92
:1038D0004FF080400121FDF7CBFC1037BD4680BD85
:1038E00080B582B000AF1C233B710A237B71052396
:1038F000BB710123FB713B1D1846FCF7A9FC1C2082
:10390000FFF7B2FF0837BD4680BD00BF80B500AFEE
:103910004FF080400121FDF7EFFC0346002B0CBF68
:1039200000230123DBB2002B06D04FF080400121A1
:10393000FDF70CFDFEF7A0F880BD00BF80B500AF1D
:10394000FFF7AAFFFFF7CCFF80BD00BF80B483B0B4
:1039500000AF78607B6800221A607B6800225A60A2
:103960007B6800221A727B6800225A727B681846B4
:103970000C37BD465DF8047B704700BF80B483B050
:1039800000AF78607B6818460C37BD465DF8047B55
:10399000704700BF80B584B000AF78603960002305
:1039A000FB600CE0FB680133FB60FA681A4B9A423B
:1039B00094BF00230123DBB2002B00D00CE04FF0BA
:1039C00080400121FDF798FC0346002B0CBF00232B
:1039D0000123DBB2002BE5D14FF080400121002212
:1039E000FDF766FC7B681B7A002B0BD17B680022FD
:1039F0001A607B683A685A607B6801221A727B6899
:103A000000225A724FF0804001210122FDF750FC44
:103A10001037BD4680BD00BF9F86010080B584B0D1
:103A200000AF78600023FB600CE0FB680133FB60B3
:103A3000FA681A4B9A4294BF00230123DBB2002B91
:103A400000D00CE04FF080400121FDF755FC03460B
:103A5000002B0CBF00230123DBB2002BE5D14FF07C
:103A6000804001210022FDF723FC7B681B7A002B9C
:103A70000BD07B6800221A607B6800225A607B684A
:103A800000221A727B6800225A724FF08040012196
:103A90000122FDF70DFC1037BD4680BD9F86010059
:103AA00080B483B000AF78607B681B7A002B02D0B3
:103AB0007B6800221A600C37BD465DF8047B7047B6
:103AC00080B584B000AF78600023FB600CE0FB6839
:103AD0000133FB60FA681F4B9A4294BF0023012315
:103AE000DBB2002B00D00CE04FF080400121FDF74D
:103AF00003FC0346002B0CBF00230123DBB2002B89
:103B0000E5D14FF0804001210022FDF7D1FB7B6819
:103B10001B7A002B15D07B681B685A1C7B681A60C7
:103B20007B681A687B685B689A4234BF0023012374
:103B3000DBB2002B05D0786800F00EF87B6800221D
:103B40001A604FF0804001210122FDF7B1FB1037D0
:103B5000BD4680BD9F86010080B483B000AF786011
:103B60007B6801225A727B6800221A607B680022FF
:103B70005A607B6800221A720C37BD465DF8047BE0
:103B8000704700BF80B584B000AF78600023FB6051
:103B90000CE0FB680133FB60FA68194B9A4294BF52
:103BA00000230123DBB2002B00D00CE04FF080405B
:103BB0000121FDF7A1FB0346002B0CBF00230123CD
:103BC000DBB2002BE5D14FF0804001210022FDF750
:103BD0006FFB0023FB727B685B7A002B04D0012310
:103BE000FB727B6800225A724FF080400121012253
:103BF000FDF75EFBFB7A18461037BD4680BD00BF5F
:103C00009F86010080B483B000AF0346FB71084B70
:103C100097F907205209F97901F01F01012000FAF4
:103C200001F143F822100C37BD465DF8047B704764
:103C300000E100E080B483B000AF0346FB71094BA4
:103C400097F907205209F97901F01F01012000FAC4
:103C500001F1203243F822100C37BD465DF8047B99
:103C6000704700BF00E100E080B400AF034B1B7859
:103C7000DBB21846BD465DF8047B70478202002027
:103C800080B400AF044B00221A70044B1846BD46A6
:103C90005DF8047B704700BF8202002050020020C4
:103CA00080B485B000AF786039607B68002B13D09A
:103CB0003B68002B10D00023FB810AE0FB893A68A7
:103CC0001344FA8979680A4412781A70FB8901331F
:103CD000FB81FB89312BF1D91437BD465DF8047B9C
:103CE000704700BF90B583B000AF786040F6021017
:103CF00006F09CFE0446204600F0EAF97B681C6052
:103D000040F6021006F092FE0446204600F0E0F96C
:103D10007B685C607B6800225A877B6800229A87F8
:103D20007B680022DA877B6818460C37BD4690BD59
:103D300090B583B000AF78607B685B68002B09D0DA
:103D40007B685C68002C05D0204600F0D9F920463D
:103D500000F0F7FE7B681B68002B09D07B681C68AD
:103D6000002C05D0204600F0CBF9204600F0E9FEFB
:103D70007B6818460C37BD4690BD00BF80B58AB041
:103D800000AF786007F120031846FCF76BFD0223B3
:103D900087F824304FF4C0633B62022387F8253054
:103DA000002387F82630012387F8273007F1200306
:103DB00020481946FCF7C8FC1E4809210722FCF7D9
:103DC00087FD1C480A210722FCF782FD07F110033A
:103DD0001846FDF785FB0C237B834FF496433B612C
:103DE0000023BB820023FB8200233B830023BB8391
:103DF00007F1100310481946FDF7B8FA0E4B40F6CC
:103E00008C021A8125233B7300237B730023BB7331
:103E10000123FB7307F10C031846FCF719FA064857
:103E20000121FDF779FB054B7A681A602837BD46FA
:103E300080BD00BF0000024000100140840200204D
:103E400080B582B000AF78600848FFF74BFC0848A7
:103E500040F225510122FDF7B5FB054840F22661ED
:103E60000122FDF7AFFB0837BD4680BDE82D0208F3
:103E70000010014080B582B000AF7860074840F282
:103E800025510022FDF79EFB044840F226610022E6
:103E9000FDF798FB0837BD4680BD00BF001001400C
:103EA00080B584B000AFF860B9601346FB80FB6852
:103EB0001A68FB881046B9681A4600F02DF91037C9
:103EC000BD4680BD80B582B000AF78600B46FB7008
:103ED000204840F226610022FDF774FB7B685B8F6F
:103EE000002B06D11B4B1B889BB203F08003002BD9
:103EF00001D1012300E00023002B1ED07B68DB8F63
:103F00007A681344FA781A727B68DB8F01339AB2AD
:103F10007B68DA877B68DB8F312B94BF002301231A
:103F2000DBB2002B02D07B680022DA877B685B8FD4
:103F300001339AB27B685A8703E0064BFA7892B253
:103F40009A80044840F226610122FDF73BFB0837C6
:103F5000BD4680BD0010014080B584B000AF7860E0
:103F60007B681B68184600F057F90346002B08D001
:103F70000D4B1B889BB203F08003002B01D0012363
:103F800000E00023002B0BD07B681B68184600F074
:103F900051F90346FB81FB8903481946FDF7DCFA1A
:103FA0001037BD4680BD00BF0010014080B483B013
:103FB00000AF78600A4B1B889BB203F04003002BD4
:103FC0000CBF00230123DBB2002B01D0012300E052
:103FD000002318460C37BD465DF8047B704700BFD0
:103FE0000010014080B483B000AF78607B685B8FC5
:103FF000002B1ED0114B7A68928F79680A44127A8E
:104000009A807B689B8F01339AB27B689A877B6822
:104010009B8F312B94BF00230123DBB2002B02D0F6
:104020007B6800229A877B685B8F013B9AB27B6832
:104030005A870C37BD465DF8047B7047001001407D
:1040400080B582B000AF204840F22661FDF702FB48
:104050000346002B0CBF00230123DBB2002B0DD045
:104060001A4B1B68002B04D0184B1B681846FFF72F
:10407000B9FF154840F22661FDF744FB124840F2B3
:104080002551FDF7E7FA0346002B0CBF002301235F
:10409000DBB2002B15D00C4840F22551FDF732FB66
:1040A000094B9B889BB2DBB2FB71084B1B68002B52
:1040B00007D0064B1B685A68FB1D1046194600F0D6
:1040C00073F80837BD4680BD00100140840200200F
:1040D00080B483B000AF78607B680022A3F8FC282E
:1040E0007B680022A3F8FE287B680022A3F8002941
:1040F0007B6818460C37BD465DF8047B704700BFEF
:1041000080B483B000AF78607B6818460C37BD463A
:104110005DF8047B704700BF80B487B000AFF860E3
:10412000B9601346FB800023FB8234E0FB68B3F8E0
:10413000FC2840F6FB039A422CD8FB68B3F8FE3803
:10414000FA8AB9680A441178FA68D154FB68B3F85E
:10415000FE3801339AB2FB68A3F8FE28FB68B3F877
:10416000FE2840F6FB039A4294BF00230123DBB2F2
:10417000002B03D0FB680022A3F8FE28FB68B3F8ED
:10418000FC3801339AB2FB68A3F8FC28FB8A0133A0
:10419000FB8200E003E0FA8AFB889A42C6D31C3710
:1041A000BD465DF8047B704780B483B000AF786093
:1041B00039607B68B3F8FC2840F6FB039A4226D8A6
:1041C0007B68B3F8FE383A6811787A68D1547B6816
:1041D000B3F8FE3801339AB27B68A3F8FE287B68F7
:1041E000B3F8FE2840F6FB039A4294BF0023012354
:1041F000DBB2002B03D07B680022A3F8FE287B688B
:10420000B3F8FC3801339AB27B68A3F8FC280C376A
:10421000BD465DF8047B704780B483B000AF786022
:104220007B68B3F8FC3818460C37BD465DF8047B54
:10423000704700BF80B584B000AF78600023FB7387
:104240001D4840F225510022FDF7BCF97B68B3F808
:10425000FC38002B25D07B68B3F800397A68D35C32
:10426000FB737B68B3F8003901339AB27B68A3F81B
:1042700000297B68B3F8002940F6FB039A4294BFFB
:1042800000230123DBB2002B03D07B680022A3F8BC
:1042900000297B68B3F8FC38013B9AB27B68A3F82D
:1042A000FC28054840F225510122FDF78BF9FB7BE4
:1042B00018461037BD4680BD0010014080B487B05D
:1042C00000AFF860B9607A60FB68B3F8FC287B68DF
:1042D0001A80FB68B3F8FC38002B33D00023FB8234
:1042E0002BE0FB8ABA681344FA68B2F80029F9682F
:1042F0008A5C1A70FB68B3F8003901339AB2FB6824
:10430000A3F80029FB68B3F8002940F6FB039A42A2
:1043100094BF00230123DBB2002B03D0FB680022F3
:10432000A3F80029FB68B3F8FC38013B9AB2FB689C
:10433000A3F8FC28FB8A0133FB827B681B88FA8A7E
:104340009A42CED31C37BD465DF8047B704700BF50
:1043500080B483B000AF78607B68002283F81024BB
:104360007B680022A3F812247B680022A3F814249F
:104370007B68002283F816247B68002283F81724C8
:104380007B68002283F818247B6818460C37BD46EA
:104390005DF8047B704700BF80B483B000AF7860E5
:1043A0007B6818460C37BD465DF8047B704700BF3C
:1043B00080B483B000AF786013460A46FA703B8041
:1043C0003B88002B0DD17B6893F81034002B04D16F
:1043D0007B68012283F8102403E07B68002283F8C5
:1043E00010247B6893F81034002B0ED13B88132BDC
:1043F00003D83B887A68F978D1543B88132B13D1C2
:104400007B68012283F816240EE03B88132B04D826
:104410003B887A681344FA781A753B88132B03D1CA
:104420007B68012283F817240C37BD465DF8047BB6
:10443000704700BF80B485B000AF7860396000235A
:10444000FB603B6800221A807B6893F81034002BD5
:1044500013D17B6893F81734012B20D17B68143378
:10446000FB607B68002283F817247B680022A3F896
:1044700014243B6814221A8011E07B6893F81634E8
:10448000012B0CD17B68FB607B68002283F816242B
:104490007B680022A3F812243B6814221A80FB6870
:1044A00018461437BD465DF8047B704780B487B06A
:1044B00000AFF860B9601346FB800023FB75FB6812
:1044C00093F818341A46920013449B00BB820023D1
:1044D0007B820DE0BB8A5A1CBA827A8AB9680A4488
:1044E0001278F9680B4483F828207B8A01337B8299
:1044F0007A8AFB889A42EDD3FB6893F8183401332B
:10450000DAB2FB6883F81824FB6893F81834312B6F
:1045100094BF00230123DBB2002B05D00123FB75E0
:10452000FB68002283F81824FB7D18461C37BD4623
:104530005DF8047B704700BF80B483B000AF786043
:1045400039603B684FF47A721A807B6828331846CA
:104550000C37BD465DF8047B704700BF80B485B062
:1045600000AF78607B680022A3F82A2E7B680022C7
:10457000A3F82C2E7B680022A3F82E2E0023FB81AB
:1045800029E0FA89796813465B001344DB000B4489
:1045900000221A70FA89796813465B001344DB0025
:1045A0000B44013353221A70FA89796813465B0071
:1045B0001344DB000B44023370221A70FA897968C5
:1045C00013465B001344DB000B44033378221A705C
:1045D000FB890133FB81FB89952BD2D97B680022B3
:1045E00083F8102E7B68532283F8112E7B6870228B
:1045F00083F8122E7B68782283F8132E0023BB8168
:1046000009E0BB8904337A681344002283F8102E32
:10461000BB890133BB81BB89132BF2D97B68184658
:104620001437BD465DF8047B704700BF80B483B08B
:1046300000AF78607B6818460C37BD465DF8047B98
:10464000704700BF80B485B000AF786039607B6888
:10465000B3F82A3E952B3AD87B68B3F82E3E1A461B
:1046600013465B001344DB0004337A681344BB60D9
:104670000023FB810AE0FB89BA681344FA89396890
:104680000A4412781A70FB890133FB81FB89132BD2
:10469000F1D97B68B3F82E3E01339AB27B68A3F858
:1046A0002E2E7B68B3F82E3E952B94BF002301235A
:1046B000DBB2002B03D07B680022A3F82E2E7B6890
:1046C000B3F82A3E01339AB27B68A3F82A2E143736
:1046D000BD465DF8047B704780B485B000AF78605C
:1046E00039600023FB603B6818221A807B68B3F8AE
:1046F0002A3E002B29D07B68B3F82C3E1A4613467D
:104700005B001344DB007A681344FB607B68B3F8FA
:104710002C3E01339AB27B68A3F82C2E7B68B3F849
:104720002C3E952B94BF00230123DBB2002B03D03A
:104730007B680022A3F82C2E7B68B3F82A3E013B4D
:104740009AB27B68A3F82A2E03E07B6803F56163C5
:10475000FB60FB6818461437BD465DF8047B704764
:1047600080B483B000AF78607B6818460C37BD46D4
:104770005DF8047B704700BF80B483B000AF786001
:104780007B6818460C37BD465DF8047B704700BF58
:1047900080B598B000AF786007F148031846FCF781
:1047A00061F8022387F84C300C23BB64022387F89E
:1047B0004D30002387F84E30012387F84F3007F142
:1047C000480362481946FBF7BFFF604802210722F1
:1047D000FCF77EF85D4803210722FCF779F84FF4D7
:1047E00016533B650023A7F854300023A7F8563032
:1047F0000023A7F858300023A7F85C300C23A7F853
:104800005A3007F1500352481946FCF7AFFD504BA0
:1048100041F217121A814E480121FCF77DFE4D48E6
:10482000FBF774FD4FF00063BB6000237B616423E2
:10483000BB610023FB624FF400333B630023FB6347
:1048400000233B6400237B630323BB63424BFB6079
:104850000023FB6100237B62404B3B614FF480638C
:104860003B620023BB6207F108033A481946FBF795
:104870001FFE38480121FBF771FE3648182101223E
:10488000FBF788FE3648FBF741FD4FF00063BB6045
:1048900040237B613223BB610023FB624FF4003372
:1048A0003B630023FB6300233B6400237B63032300
:1048B000BB63294BFB600023FB6100237B62294B18
:1048C0003B614FF480633B620023BB6207F1080346
:1048D00023481946FBF7ECFD21480121FBF73EFE7A
:1048E0001F4810210122FBF755FE1948C021012263
:1048F000FCF744FE102387F84430002387F8453046
:10490000012387F84630012387F8473007F1440335
:104910001846FBF79DFC1020FFF774F9112387F868
:104920004430002387F84530012387F846300123BF
:1049300087F8473007F144031846FBF789FC11203C
:10494000FFF760F96037BD4680BD00BF0000024040
:10495000004400408860024004440040EC02002013
:10496000A06002408802002080B59CB000AF002308
:10497000FB660023BB661E4B5B6803F40063002BE1
:104980000CBF00230123DBB2002B13D0184B4FF4D4
:104990000062DA6017480121FBF7E0FD164BFB6669
:1049A000164BBB66F86EB96EFFF77AF9144B01220D
:1049B0001A7019E00E4B5B6803F48063002B0CBF88
:1049C00000230123DBB2002B0ED0094B4FF4806291
:1049D000DA600C4BFB66094BBB66F86EB96EFFF7ED
:1049E0005FF9074B01221A707037BD4680BD00BFCA
:1049F00000600240886002401E0300205002002038
:104A000082020020EC02002080B500AF0E4B5B68F4
:104A100003F40013002B0CBF00230123DBB2002B97
:104A20000BD0094B4FF40012DA6008480021FBF765
:104A300095FD074B01221A7004E0034B5B6803F4F9
:104A40008013002B80BD00BF00600240A0600240C8
:104A50008302002080B582B000AF78601020FFF79D
:104A6000D1F80837BD4680BD80B582B000AF786010
:104A70001020FFF7DFF80837BD4680BD80B582B053
:104A800000AF786003480121FCF746FD0837BD46BA
:104A900080BD00BF0044004080B582B000AF7860A8
:104AA00003480021FCF738FD0837BD4680BD00BF34
:104AB0000044004080B586B000AFF860B96013468E
:104AC000FB80FB88322B01D93223FB801748102151
:104AD0000022FBF75FFD164B1B78DBB2012B14BFE6
:104AE00000230123DBB2002B17D0114B00221A70D8
:104AF0000023FB8209E0FB8AFA8AB9680A4411782C
:104B00000C4AD154FB8A0133FB82FA8AFB889A4211
:104B1000F1D306480121FBF721FD044810210122B1
:104B2000FBF738FD1837BD4680BD00BFA0600240CE
:104B3000830200208802002003460846194616F02A
:104B40007DBC08B117F0D8B970471EB400F09BF8CF
:104B50001EBC15F0A9FF0378472B17D143784E2BC5
:104B600014D18378552B11D1C378432B0ED10379FF
:104B7000432B0BD143792B2B08D183792B2B05D1D8
:104B8000C07901288CBF00200120704700207047A9
:104B90002DE9F34198460378C679472B04460F4622
:104BA00014D143784E2B11D18378552B0ED1C37875
:104BB000432B0BD10379462B08D143794F2B05D1D9
:104BC0008379522B02D10EB9012205E02046FFF76E
:104BD000C2FF002830D0002200230021019182B9B9
:104BE0008BB9012E0ABF54F8203CA4F12003783B76
:104BF000012E08BF54F8204C1D6818BF583401948A
:104C000002E0104D00E0104D2B6828469B68984745
:104C100020B1019B1B680193022400E001243B6842
:104C200038461E69294601AA0123B04738B1019BC5
:104C3000C8F80030204602E002460123CDE702B06A
:104C4000BDE8F081F82D0208242E020870B5044654
:104C500000F04EF805462046A4F12006FFF77BFF42
:104C600050B154F8043C0133012B44F8043C08D102
:104C7000AB6844F8083C03E0AB680BB100F020F8E7
:104C8000AE60012070BD70B500F032F88468054652
:104C90000CB900F015F804F120063046FFF75BFF71
:104CA00038B1E369013BE36123B9A269AA60A3615A
:104CB00000E0A860304670BD08B5804716F06AFB7A
:104CC00008B5024B1868FFF7F7FF00BF140000207B
:104CD00008B58047FFF7F4FF08B5024B1868FFF7E7
:104CE000F7FF00BF1800002005F0A0BEFFF729BFA6
:104CF000004870475003002008B503491B220220DA
:104D000019F0EEFAFFF7DCFF4C2E020830B5002355
:104D10001A4610F8014B04F07F059540240643EA3B
:104D2000050302F10702F4D40B6030BD30B5002357
:104D30001A4610F8014B04F07F0595402B432506D9
:104D400002F10702F5D41F2A06D8640604D54FF0F5
:104D5000FF3404FA02F213430B6030BD50282DE9F2
:104D6000F7438146884616461F4605D1D01C20F0E1
:104D7000030050F8044B34E000F00F030C2B23D851
:104D8000DFE803F01A07121A1E222222220C161A3A
:104D90001E00304601A9FFF7B9FF03E0304601A924
:104DA000FFF7C4FF019C11E0304630F8024B0DE0E4
:104DB000304630F9024B09E0304650F8044B05E02C
:104DC000346806F1080001E016F0E4FA4CB109F08D
:104DD0007003102B18BF4646344419F0800F18BFDB
:104DE00024683C6003B0BDE8F08308B50346FF2BA0
:104DF00008461CD003F07003202B0ED003D8B3B1AB
:104E0000102B12D113E0402B0BD0502B0FD0302B96
:104E10000BD1BDE8084016F025B8BDE8084016F0F3
:104E200025B8BDE8084016F00DB816F0B3FA00201A
:104E300008BD2DE9F04107460C460846394616469E
:104E40001D46FFF7D2FF324601462B462046BDE8FD
:104E5000F041FFF783BF73B50D461446064610B107
:104E600015F0F0FFFFE720602978FF2905F1010226
:104E700005D03046231DFFF7DCFF024600E06060EE
:104E800013782375FF2B02F1010007D0102323753F
:104E900001A9FFF73BFF019B034400E00023E3600F
:104EA0000378637501A90130FFF730FF019B0344CC
:104EB000236102B070BD1FB50A4603AB0021009309
:104EC0000B4615F03DFA039805B05DF804FB0000B1
:104ED0002DE9F04F91B00023049300F00303012B60
:104EE00006460C46154603D028D3022B1DD0DBE026
:104EF000030725D40F6A10460D21FFF7DCFF874218
:104F00001ED106231DE0079A13449F424ED2089BF0
:104F1000002B6ED00B9A03EB0208099810B10E9B80
:104F200001381844B8F1000F69D12046294615F020
:104F300073FF08B1092069E1082067E1012300E05F
:104F4000022306F0080943EA090910AB002143F8DF
:104F50002C4D284600930C220B4615F019FAB9F196
:104F6000060F0AD1D4F83080A66AD4F82CA0B8F184
:104F7000000F0CBF01270327D3E0284615F068FF78
:104F800082460028D1D00AAA51462846FFF763FF7F
:104F9000294606469DF83C00FFF727FF0F210C909D
:104FA0002846FFF788FF20F00100471E0E9B9E4217
:104FB00021D232469DF83D1006AB0020FFF739FFA5
:104FC0009DF83D10024607AB0020FFF732FF08AB0B
:104FD00002469DF83D100020FFF72BFF09A9FFF7BF
:104FE00095FE0A9B069A13449F4206468BD20E9E5C
:104FF000DCE7984691E74FF00008012704E100281C
:1050000000F0018119F00801039111D047232370AA
:105010004E2363705523A3704323E370462323710B
:105020004F2363715223A3710023E371002719E01A
:10503000E379012B0CBF54F8203C04F1580304938E
:10504000F4E704230D9E0C9902FB136209ABFFF7F2
:1050500085FE099900295FD064BB0898002800F0FC
:10506000CC80584407A9FFF761FE08A98346FFF7E3
:105070005DFE079A002A4DD023DD9DF83C00FF28F5
:1050800014D000F00703042B0ED801A151F823F02F
:1050900043500008A9500008B150000843500008D0
:1050A000A55000080823CDE716F074F90023C9E7DE
:1050B0000223C7E72046002204ABFFF769FD58BB77
:1050C000CBE70D9B02F1010EBCB1039AAAB9049A79
:1050D0000692A3EB8E0EAEF1040656F8041F41B102
:1050E00020463144002206ABFFF752FD0028F4D0E1
:1050F000012181F00101C9B209E06FF0030C0CFB42
:105100000EFE53F80E10D1F1010138BF0021002925
:10511000A3D001E00127A0E7079E032719F0010FA4
:105120005AD119F0080907D0012F01D1FFF7C8FDA6
:10513000002E24DAFFF7D0FD012F02D1204606F021
:10514000BCF8002E1BDA0AAA51462846FFF783FE58
:105150009DF83C002946FFF748FE0D9B0C906FF030
:10516000030206FB02221A444B4652F8231009B1EF
:105170000133FAE7A3620423E0622363626310ABA6
:10518000002143F8244D0A46009328460B4615F0AB
:10519000FFF810AB002143F8206D01220093284650
:1051A0000B4615F0F5F80F212846FFF784FE10ABEB
:1051B00000F0010040EA080043F81C0D00210093B4
:1051C00028460F220B4615F0E3F8022F02D12046A5
:1051D000FFF73CFD072019E0022F3FF4A6AE28465A
:1051E0000D21049FFFF767FE67622062A662C4F884
:1051F0002CA0C4F83080062008E0002F3FF495AEC4
:10520000064602278AE70227002687E711B0BDE895
:10521000F08F00BF1F4BF7B51A781F4C12B12368EF
:105220001E4832E001221A7006F01DF800282AD02C
:105230004568194F2B782A2B02AB08BF0135002196
:105240004FF0FF3243F8042D28460A4605F07EFB56
:1052500023680646D968124816F0ECFA019B13B988
:105260003B68304601E03B682846D96816F0E2FA10
:1052700023680C48D96816F0DDFA019B43B9304623
:1052800016F03AFE04E023680748D96816F0D2FA0F
:1052900016F080F85C03002000010020872E020831
:1052A000A52E0208D62E0208D92E020870B44C1E74
:1052B0004A2C2CD8DFE804F03C3C3C3C2B2B2B2B1D
:1052C00026263C2626262626262626262626262B63
:1052D00027272727272727273C26262626262B264B
:1052E000273D3C2B3C27273D2B2B26263C3C3C3C9A
:1052F0003C263C3C263C2B2B2626262B2B2B2626DD
:10530000263C3C00CAB144698569AC4202DB0020FE
:1053100070BC704704EB440506690134AD0044617C
:1053200074190CD071556260A360204670BC704740
:105330001AB1002BE7D11846EAE71046E8E7204605
:10534000E6E700BF30B443698469A34209DA03EB9E
:10535000430405690133A40043612B1901D001B155
:1053600012B9002030BC70470020285559609A605F
:10537000184630BC704700BF2DE9F041C5680446AF
:10538000884617462B780E4617E0562B22D04B2B1B
:105390002DD1236B0135002F03F10603E560236354
:1053A0000CBF1B211E21002213462046FFF77EFF63
:1053B0003060D0B1E5682B78061D722BE5D1236BE8
:1053C0000135002F03F10903E56023630CBF1921A8
:1053D0001C21E8E7236B0135002F03F10903E56089
:1053E00023630CBF1A211D21DDE7BDE8F081BFB9A1
:1053F000462B15D1464513D01D241E201C2108E044
:105400001B2A10D0192A00D1197003F1040846454F
:1054100006D0D8F800301A781A2AF1D11C70F4E7B7
:105420003046BDE8F0811870EFE700BF10B4C468E3
:105430002378522B0A460FD04F2B03D008465DF835
:10544000044B7047036B0333036320210134C460B2
:1054500000235DF8044B29E7036B023303631F212C
:10546000F4E700BF2DE9F0410F46C1680C782E2CFF
:10547000804626D00B462E2C14D15C78303C092C6B
:1054800010D89C78A4F13002092A03F1020016D842
:10549000DD1C2B4601351C78A4F13006092EF8D905
:1054A0002E2CEAD05A1AC8F80C304046FFF74AFFB3
:1054B0003A4603464B214046BDE8F041F6E6034636
:1054C000D9E74B78A3F16102192A0AD88A1C13463E
:1054D00001321C78A4F161001928F8D95F2CF6D0AC
:1054E000C9E75F2BC6D1F1E72DE9F003C268137855
:1054F000532B03D00020BDE8F0037047531CC3605A
:105500005378ABB1931CC36053785F2B52D1002109
:10551000036A9942EED2836AC26901338362BDE8AD
:10552000F00352F821007047A3F14102192A46D92D
:10553000826812076AD400296AD13F4A02F1C40581
:1055400002E01C32AA42D5D014789C42F9D15569A8
:10555000002D6AD043698469D2F81880A34262DAC8
:1055600003EB4307D0F810C0BF0001331CEB070664
:1055700043615FD04FF018090CF80790374675600B
:10558000C6F80880C76200294AD0D5681269016B45
:10559000A34211440163ADDA03EB43010469013313
:1055A00089004361631843D01820605418465D6039
:1055B0009A60A0E7A3F13005EAB2092AB4D8002224
:1055C00012E002EBC20103EB8103A3F130018A4236
:1055D00090D8C2681378541C1BB1C46013785F2B39
:1055E00012D0A3F130050A46E9B2A3F1410409291A
:1055F000E4B2E6D9192C3FF67DAF02EBC20103EB12
:105600008103A3F13701E2E7013181E7012194E74A
:10561000C2681178433901298CBF002101218CE730
:1056200055689268B3E70027ACE784694369AAE745
:10563000184660E73746A5E7082F020870B50D4603
:10564000D0F80011FF29044606D04A1CC4F80021F6
:10565000655484F8045170BD0026D0F80831D0F8A4
:105660000C2180F8FF609847D4F8203131465A1C4D
:10567000C4F820210122C4F80021655484F80451A3
:1056800070BD00BF70B4026813786E2B054618D049
:105690000026A3F13002092A18D82A680020013216
:1056A00000EB80042A6003EB440412F8013BA3F1F1
:1056B00030010929A4F13000F2D906B1404270BC92
:1056C0007047531C036053780126E2E70020F4E79B
:1056D00043698269934210B513DA03EB430201690F
:1056E000920001338C18436108D040238B540C3056
:1056F000FFF7C8FF23466060184610BD23461846D2
:1057000010BD0023184610BD10B5C3681A785F2A73
:1057100004460BD06E2A06D00C30FFF7B3FFE368C7
:105720001A785F2A06D04FF0FF3010BD00200133F9
:10573000E36010BD0130FAE738B5C3681A78542A1F
:10574000044601D0002038BD0133C360FFF7DCFF01
:10575000051EF7DBA16A6369A26901319342A16268
:10576000F0DA03EB430221690133920063618B1885
:10577000E8D005248C545D60184638BD08B5C36870
:105780001A785F2A01D0012008BD013340F80C3F90
:10579000FFF778FFC043C00F08BD00BF70B50446D7
:1057A0000C30FFF76FFF061E32DDE56863685B1B98
:1057B0009E422FDCA268AB195207E36015D4092E74
:1057C0000CDD28461449082216F0F9FB30B92B7A73
:1057D0002E2B10D05F2B0ED0242B0CD02946324616
:1057E0002046FFF7AFFDE06270BDAA5D242A04BF2A
:1057F0000133E360E3E76B7A4E2BEFD1236B07496C
:1058000016339E1B266320461522FFF79BFDEAE711
:10581000002070BD0020E6E7403602084C36020842
:1058200038B5044629B9C3681A7832B15A1CC26027
:105830001978682912D0762901D0002038BD04F1EA
:105840000C052846FFF71EFFE3681A785F2AF4D19B
:105850000133E3602846FFF715FF03E004F10C0075
:10586000FFF710FFE3681A785F2AE6D10133E3609F
:10587000012038BDD0F810310246C3B15A680B6818
:10588000906870B102782F2A0DD1002B04DC09E05A
:1058900002782F2A07D143B18068013B0028F7D155
:1058A0007047704701D00020704740687047012161
:1058B0001846C2F81811704738B50C46054691B322
:1058C00023784A2B27D8DFE803F02E262626263019
:1058D0002E2B2B2626262626262626262626262656
:1058E00026262E2626262626262626262626262650
:1058F000262E2626262626262626262E2B26262633
:105900002626262626262626262E262626262E2627
:105910002E26262E2E0028466168FFF7CDFF18B9E7
:10592000A468002CCCD1002038BD2846211DFFF7EB
:10593000A1FF0028F7D003782F2BF4D138BD00BF8A
:10594000F0B55368946801330B44A34283B0154605
:105950000E46074613D8EC680CB103B0F0BD95E8CD
:10596000090032463946184416F038FB95E80C0019
:105970003244D4546B681E446E6003B0F0BDD268EC
:10598000002AEAD11CB9022B4FF0020402D96400AC
:10599000A342FCD82868214616F02CFC034610B11F
:1059A0002860AC60D7E72868019316F0A5FA019B40
:1059B0002B6001226B60AB60EA60CEE72DE9F0411D
:1059C000C3681A784C2A054602D00020BDE8F08151
:1059D0005A1CC26059785F293AD05A290DD1013238
:1059E000EA602846002100F0F3FDEA681378452BB1
:1059F000EBD10132EA60BDE8F08100F003FA07461E
:105A00000028E2D00378272B33D0E9680B786E2B7F
:105A100028D04FF03B08452B34D0002BD5D04B1C61
:105A200001E0002CD1D0EB601E4613F8014B452C51
:105A3000F7D1721A2846FFF785FC3A4603464146DD
:105A40002846FFF733FCEA681378452BBDD1D0E731
:105A50009A1CC2609B785A2BC1D0452B4FF0000096
:105A6000B3D1C6E74A1CEA604B784FF03C081146B8
:105A7000D1E743681A7C002AC7D05A682B6B9B1A5F
:105A80002B63C2E70022D5E7F0B5C168C76A0B787F
:105A9000493B012B83B004461ED84A1CC2604B7898
:105AA000452B45D002AE002146F8041D493B0F2B83
:105AB00035D8DFE803F02F2F341434343434343441
:105AC0003434343434080132E260204601F06CFA98
:105AD000E3681A78452A27D0002003B0F0BD20469D
